S010000054686520536166652E7372656354
S11300000C94BA000C94CF000C94CF000C94CF0045
S11300100C94CF000C94CF000C94CF000C94CF0020
S11300200C94CF000C94CF000C94CF000C94CF0010
S11300300C94CF000C94CF000C94CF000C94CF0000
S11300400C94CF000C94CF000C94CF000C94CF00F0
S11300500C94CF00DD00F6000F012801400140019F
S11300604001400140014001400140014001400184
S11300704001400140014001400140014001400174
S11300804001400140014001400140014001400164
S113009040014001DD00F6000F0128014D01660119
S11300A07F019801B001B001B001B001B001B0010D
S11300B0B001B001B001B001B001B001B001B001B4
S11300C0B001B001B001B001B001B001B001B001A4
S11300D0B001B001B001B001B001B0014D01660141
S11300E07F019801C001D501EA01FF011302130247
S11300F01302130213021302130213021302130254
S11301001302130213021302130213021302130243
S11301101302130213021302130213021302130233
S113012013021302C001D501EA01FF0123023C02BC
S113013055026E02860286028602860286028602C4
S1130140860286028602860286028602860286026B
S1130150860286028602860286028602860286025B
S113016086028602860286028602860223023C02F8
S113017055026E0211241FBECFE5D8E0DEBFCDBF0D
S113018010E0A0E6B0E0E6E6FBE002C005900D92C8
S1130190A83CB107D9F70E94C7040C94B1050C948C
S11301A0000090E0FC01E154F109E432F10508F0AB
S11301B067C0E65DFF4F0C94AB05413059F42AB398
S11301C081E090E002C0880F991F6A95E2F7822BC4
S11301D08ABB08952AB381E090E002C0880F991F7A
S11301E06A95E2F7809582238ABB0895413059F4D9
S11301F027B381E090E002C0880F991F6A95E2F767
S1130200822B87BB089527B381E090E002C0880F5A
S1130210991F6A95E2F78095822387BB0895413040
S113022059F424B381E090E002C0880F991F6A95C5
S1130230E2F7822B84BB089524B381E090E002C0EE
S1130240880F991F6A95E2F78095822384BB0895ED
S1130250413059F421B381E090E002C0880F991F26
S11302606A95E2F7822B81BB089521B381E090E087
S113027002C0880F991F6A95E2F78095822381BB9B
S1130280089590E0FC01E154F109E432F10508F02D
S113029067C0E25BFF4F0C94AB05413059F42BB3BC
S11302A081E090E002C0880F991F6A95E2F7822BE3
S11302B08BBB08952BB381E090E002C0880F991F97
S11302C06A95E2F7809582238BBB0895413059F4F7
S11302D028B381E090E002C0880F991F6A95E2F785
S11302E0822B88BB089528B381E090E002C0880F78
S11302F0991F6A95E2F78095822388BB089541305F
S113030059F425B381E090E002C0880F991F6A95E3
S1130310E2F7822B85BB089525B381E090E002C00B
S1130320880F991F6A95E2F78095822385BB08950B
S1130330413059F422B381E090E002C0880F991F44
S11303406A95E2F7822B82BB089522B381E090E0A4
S113035002C0880F991F6A95E2F78095822382BBB9
S113036008950F931F93082F10E0F801E154F10949
S1130370E432F10508F057C0EE58FF4F0C94AB057A
S113038049B381E090E09C01062E02C0220F331F86
S11303900A94E2F7842F90E08223932302C0959578
S11303A087956A95E2F7982F3EC046B381E090E0C6
S11303B09C01062E02C0220F331F0A94E2F7842FF9
S11303C090E08223932302C0959587956A95E2F77E
S11303D0982F29C043B381E090E09C01062E02C00F
S11303E0220F331F0A94E2F7842F90E08223932391
S11303F002C0959587956A95E2F7982F14C040B38B
S113040081E090E09C01062E02C0220F331F0A9463
S1130410E2F7842F90E08223932302C09595879579
S11304206A95E2F7982F892F1F910F91089590E014
S1130430FC01E154F109E432F10508F067C0EA5621
S1130440FF4F0C94AB05413059F42BB381E090E09D
S113045002C0880F991F6A95E2F7822B8BBB08951F
S11304602BB381E090E002C0880F991F6A95E2F7F0
S1130470809582238BBB0895413059F428B381E0E1
S113048090E002C0880F991F6A95E2F7822B88BB1F
S1130490089528B381E090E002C0880F991F6A95FF
S11304A0E2F78095822388BB0895413059F425B33F
S11304B081E090E002C0880F991F6A95E2F7822BD1
S11304C085BB089525B381E090E002C0880F991F91
S11304D06A95E2F78095822385BB0895413059F4EB
S11304E022B381E090E002C0880F991F6A95E2F779
S11304F0822B82BB089522B381E090E002C0880F72
S1130500991F6A95E2F78095822382BB08959FBB69
S11305108EBB6DBB8CB384608CBB8CB382608CBB94
S1130520E199FECF08959FBB8EBB8CB381608CBBD9
S11305308DB3089541E064E082E40E94D10041E07B
S113054065E082E40E94D10041E066E082E40E941A
S1130550D10041E067E082E40E94D10040E062E023
S113056084E40E94D10040E063E084E40E94D1006E
S113057040E064E084E40E94D10040E065E084E46B
S11305800E94D10041E062E084E40E94170241E04D
S113059063E084E40E94170241E064E084E40E9482
S11305A0170241E065E084E40E9417020895EF9287
S11305B0FF920F931F93CF93DF93CDB7DEB760976E
S11305C00FB6F894DEBF0FBECDBF80E1E0E6F0E0E9
S11305D0DE01119601900D928A95E1F7EE24EA94DA
S11305E0F12C3AC041E064E082E40E94410141E020
S11305F065E082E40E94410141E066E082E40E94F9
S1130600410141E067E082E40E94410140E064E08E
S11306106F0D82E40E94410110E019C062E0610F95
S113062084E40E94B101082F811110C0EF2DF0E085
S1130630EE0FFF1FEE0FFF1F81E090E08C0F9D1F58
S1130640E80FF91FE10FF11DE08003C01F5F1430B4
S113065028F3002321F0F39493E09F1518F68E2DD0
S113066060960FB6F894DEBF0FBECDBFDF91CF9179
S11306701F910F91FF90EF90089541E062E081E4B3
S11306800E9441018FEC97E00197F1F700C0000050
S113069040E062E081E40E9441018FEC97E0019721
S11306A0F1F700C000000895CF93C82F482F407180
S11306B050E05595479555954795559547955595CA
S11306C0479563E081E40E9441014C2F407250E061
S11306D055954795559547955595479555954795FE
S11306E05595479564E081E40E9441014C2F407484
S11306F050E0042E452F000C441F550B000C441FE2
S1130700551F65E081E40E9441014C2F441F44279A
S1130710441F66E081E40E94410141E061E081E41C
S11307200E9441010E943D034C2F417063E081E42B
S11307300E9441014C2F427050E05595479564E06A
S113074081E40E9441014C2F447050E05595479537
S11307505595479565E081E40E944101C8704C2F8E
S113076050E055954795559547955595479566E0BD
S113077081E40E94410141E061E081E40E94410181
S11307800E943D038FEC97E00197F1F700C0000051
S1130790CF910895CF93C82F482F407150E05595BD
S11307A0479555954795559547955595479563E0D4
S11307B081E40E9441014C2F407250E055954795C9
S11307C0559547955595479555954795559547950D
S11307D064E081E40E9441014C2F407450E0042EF7
S11307E0452F000C441F550B000C441F551F65E09A
S11307F081E40E9441014C2F441F4427441F66E0BA
S113080081E40E94410140E061E081E40E944101F1
S11308100E943D034C2F417063E081E40E9441013A
S11308204C2F427050E05595479564E081E40E9456
S113083041014C2F447050E0559547955595479587
S113084065E081E40E944101C8704C2F50E0559549
S11308504795559547955595479566E081E40E94DF
S1130860410140E061E081E40E9441010E943D03B6
S11308708FEC97E00197F1F700C00000CF91089545
S11308802FEF81EE94E0215080409040E1F700C0CA
S1130890000041E063E081E40E94D10041E064E0B3
S11308A081E40E94D10041E065E081E40E94D1002E
S11308B041E066E081E40E94D10041E061E081E42E
S11308C00E94D10041E062E081E40E94D10082E014
S11308D00E94CA038FE19EE40197F1F700C0000073
S11308E088E20E94CA038FEC97E00197F1F700C0F9
S11308F000008EE00E94CA038FEC97E00197F1F7A5
S113090000C0000081E00E94CA038FE19EE40197C9
S1130910F1F700C0000086E00E94CA038FEC97E064
S11309200197F1F700C00000089581E00E94CA0316
S113093008959FEF980F923070F4662371F061313F
S113094070F4813019F42FE7260F0AC0823041F485
S11309502FEB260F05C020E803C020E801C020E8E3
S1130960822F0E94CA038FEC97E00197F1F700C031
S113097000000895CF93DF93EC0103C00E94540359
S1130980219688818111FACFDF91CF910895DF926A
S1130990EF92FF920F931F93CF93DF9300D000D079
S11309A0CDB7DEB70E9440040E949A0280E190E035
S11309B00E9493028F3F61F580E790E00E94BA04A1
S11309C000E01FC00E94D702182F8F3FD9F30E9466
S11309D054032FEF84E39CE0215080409040E1F7E2
S11309E000C000006AE0600F81E00E9499048AE27E
S11309F00E945403802F90E0612F41960E94870249
S1130A000F5F0430F8F260E080E190E00E9487021A
S1130A100F2EF3E0EF2EF02DD12C8CC08C818B8324
S1130A2089830E9495048AE790E00E94BA04F12C1D
S1130A3021C00F2D10E00E94D702E1E0F0E0EC0F9E
S1130A40FD1FE00FF11F80838F3F99F30E94540331
S1130A502FEF84E39CE0215080409040E1F700C0F8
S1130A6000006CE06F0D81E00E9499048AE20E940C
S1130A705403F39423E02F15E0F681E190E00E9403
S1130A8093029981891325C082E190E00E94930228
S1130A901B8181131EC082E190E00E94930218130F
S1130AA018C083E190E00E9493029C81891311C0D5
S1130AB00E94950486E890E00E94BA0461E082E016
S1130AC00E94990485E990E00E94BA04DD24D3943D
S1130AD031C01FEF1E0DE9F00E94950481EA90E0F9
S1130AE00E94BA0461E082E00E94990480EB90E0E5
S1130AF00E94BA048FE28E0D0E9454038FEF93ED8F
S1130B0020E3815090402040E1F700C00000E12E36
S1130B1011C00E94950481EA90E00E94BA0461E049
S1130B2082E00E9499048CEB90E00E94BA04E12ECA
S1130B30DD24D394DD2009F471CF80E090E00F90A0
S1130B400F900F900F90DF91CF911F910F91FF9015
S1130B50EF90DF900895EE0FFF1F0590F491E02DC4
S1090B600994F894FFCF94
S1130B663738392F3435362A3132332D41303D2B3F
S1130B7673657420706173733A00636865636B20F0
S1130B86706173733A007269676874207061737375
S1130B96776F72640073616665206F70656E656455
S1130BA60077726F6E672070617373776F7264007B
S1130BB67472696573206C6566743D00736166655D
S10B0BC620636C6F7365640089
S9030000FC
